{
  "contractName": "CompletionContract",
  "abi": [
    {
      "inputs": [],
      "stateMutability": "payable",
      "type": "constructor",
      "payable": true
    },
    {
      "anonymous": false,
      "inputs": [
        {
          "indexed": true,
          "internalType": "address",
          "name": "previousOwner",
          "type": "address"
        },
        {
          "indexed": true,
          "internalType": "address",
          "name": "newOwner",
          "type": "address"
        }
      ],
      "name": "OwnershipTransferred",
      "type": "event"
    },
    {
      "stateMutability": "payable",
      "type": "fallback",
      "payable": true
    },
    {
      "inputs": [],
      "name": "owner",
      "outputs": [
        {
          "internalType": "address",
          "name": "",
          "type": "address"
        }
      ],
      "stateMutability": "view",
      "type": "function",
      "constant": true
    },
    {
      "inputs": [
        {
          "internalType": "uint256",
          "name": "",
          "type": "uint256"
        }
      ],
      "name": "pastReceivers",
      "outputs": [
        {
          "internalType": "address",
          "name": "receiverAddress",
          "type": "address"
        },
        {
          "internalType": "uint256",
          "name": "amount",
          "type": "uint256"
        }
      ],
      "stateMutability": "view",
      "type": "function",
      "constant": true
    },
    {
      "inputs": [],
      "name": "renounceOwnership",
      "outputs": [],
      "stateMutability": "nonpayable",
      "type": "function"
    },
    {
      "inputs": [
        {
          "internalType": "address",
          "name": "newOwner",
          "type": "address"
        }
      ],
      "name": "transferOwnership",
      "outputs": [],
      "stateMutability": "nonpayable",
      "type": "function"
    },
    {
      "stateMutability": "payable",
      "type": "receive",
      "payable": true
    },
    {
      "inputs": [
        {
          "internalType": "address payable",
          "name": "_receiver",
          "type": "address"
        }
      ],
      "name": "transferStakedBalance",
      "outputs": [],
      "stateMutability": "nonpayable",
      "type": "function"
    },
    {
      "inputs": [],
      "name": "getPastReceivers",
      "outputs": [
        {
          "components": [
            {
              "internalType": "address",
              "name": "receiverAddress",
              "type": "address"
            },
            {
              "internalType": "uint256",
              "name": "amount",
              "type": "uint256"
            }
          ],
          "internalType": "struct Receiver[]",
          "name": "",
          "type": "tuple[]"
        }
      ],
      "stateMutability": "view",
      "type": "function",
      "constant": true
    },
    {
      "inputs": [],
      "name": "getLastReciver",
      "outputs": [
        {
          "components": [
            {
              "internalType": "address",
              "name": "receiverAddress",
              "type": "address"
            },
            {
              "internalType": "uint256",
              "name": "amount",
              "type": "uint256"
            }
          ],
          "internalType": "struct Receiver",
          "name": "",
          "type": "tuple"
        }
      ],
      "stateMutability": "view",
      "type": "function",
      "constant": true
    }
  ],
  "bytecode": "0x608060405261002061001561002560201b60201c565b61002d60201b60201c565b6100f1565b600033905090565b60008060009054906101000a900473ffffffffffffffffffffffffffffffffffffffff169050816000806101000a81548173ffffffffffffffffffffffffffffffffffffffff021916908373ffffffffffffffffffffffffffffffffffffffff1602179055508173ffffffffffffffffffffffffffffffffffffffff168173ffffffffffffffffffffffffffffffffffffffff167f8be0079c531659141344cd1fd0a4f28419497f9722a3daafe3b4186f6b6457e060405160405180910390a35050565b610da0806101006000396000f3fe6080604052600436106100745760003560e01c80638da5cb5b1161004e5780638da5cb5b146100fd578063a8cd55d114610128578063d35c073414610151578063f2fde38b1461017c5761007b565b80631e21afd51461007d5780633b86425d146100bb578063715018a6146100e65761007b565b3661007b57005b005b34801561008957600080fd5b506100a4600480360381019061009f919061082a565b6101a5565b6040516100b29291906108a7565b60405180910390f35b3480156100c757600080fd5b506100d06101f9565b6040516100dd91906109cc565b60405180910390f35b3480156100f257600080fd5b506100fb6102b8565b005b34801561010957600080fd5b50610112610340565b60405161011f91906109ee565b60405180910390f35b34801561013457600080fd5b5061014f600480360381019061014a9190610a47565b610369565b005b34801561015d57600080fd5b506101666104a1565b6040516101739190610aa3565b60405180910390f35b34801561018857600080fd5b506101a3600480360381019061019e9190610aea565b61054a565b005b600181815481106101b557600080fd5b90600052602060002090600202016000915090508060000160009054906101000a900473ffffffffffffffffffffffffffffffffffffffff16908060010154905082565b60606001805480602002602001604051908101604052809291908181526020016000905b828210156102af57838290600052602060002090600202016040518060400160405290816000820160009054906101000a900473ffffffffffffffffffffffffffffffffffffffff1673ffffffffffffffffffffffffffffffffffffffff1673ffffffffffffffffffffffffffffffffffffffff1681526020016001820154815250508152602001906001019061021d565b50505050905090565b6102c0610642565b73ffffffffffffffffffffffffffffffffffffffff166102de610340565b73ffffffffffffffffffffffffffffffffffffffff1614610334576040517f08c379a000000000000000000000000000000000000000000000000000000000815260040161032b90610b74565b60405180910390fd5b61033e600061064a565b565b60008060009054906101000a900473ffffffffffffffffffffffffffffffffffffffff16905090565b610371610642565b73ffffffffffffffffffffffffffffffffffffffff1661038f610340565b73ffffffffffffffffffffffffffffffffffffffff16146103e5576040517f08c379a00000000000000000000000000000000000000000000000000000000081526004016103dc90610b74565b60405180910390fd5b60004790506103f4828261070e565b600160405180604001604052808473ffffffffffffffffffffffffffffffffffffffff16815260200183815250908060018154018082558091505060019003906000526020600020906002020160009091909190915060008201518160000160006101000a81548173ffffffffffffffffffffffffffffffffffffffff021916908373ffffffffffffffffffffffffffffffffffffffff1602179055506020820151816001015550505050565b6104a96107bf565b60018080805490506104bb9190610bc3565b815481106104cc576104cb610bf7565b5b90600052602060002090600202016040518060400160405290816000820160009054906101000a900473ffffffffffffffffffffffffffffffffffffffff1673ffffffffffffffffffffffffffffffffffffffff1673ffffffffffffffffffffffffffffffffffffffff168152602001600182015481525050905090565b610552610642565b73ffffffffffffffffffffffffffffffffffffffff16610570610340565b73ffffffffffffffffffffffffffffffffffffffff16146105c6576040517f08c379a00000000000000000000000000000000000000000000000000000000081526004016105bd90610b74565b60405180910390fd5b600073ffffffffffffffffffffffffffffffffffffffff168173ffffffffffffffffffffffffffffffffffffffff161415610636576040517f08c379a000000000000000000000000000000000000000000000000000000000815260040161062d90610c98565b60405180910390fd5b61063f8161064a565b50565b600033905090565b60008060009054906101000a900473ffffffffffffffffffffffffffffffffffffffff169050816000806101000a81548173ffffffffffffffffffffffffffffffffffffffff021916908373ffffffffffffffffffffffffffffffffffffffff1602179055508173ffffffffffffffffffffffffffffffffffffffff168173ffffffffffffffffffffffffffffffffffffffff167f8be0079c531659141344cd1fd0a4f28419497f9722a3daafe3b4186f6b6457e060405160405180910390a35050565b60008273ffffffffffffffffffffffffffffffffffffffff168260405161073490610ce9565b60006040518083038185875af1925050503d8060008114610771576040519150601f19603f3d011682016040523d82523d6000602084013e610776565b606091505b50509050806107ba576040517f08c379a00000000000000000000000000000000000000000000000000000000081526004016107b190610d4a565b60405180910390fd5b505050565b6040518060400160405280600073ffffffffffffffffffffffffffffffffffffffff168152602001600081525090565b600080fd5b6000819050919050565b610807816107f4565b811461081257600080fd5b50565b600081359050610824816107fe565b92915050565b6000602082840312156108405761083f6107ef565b5b600061084e84828501610815565b91505092915050565b600073ffffffffffffffffffffffffffffffffffffffff82169050919050565b600061088282610857565b9050919050565b61089281610877565b82525050565b6108a1816107f4565b82525050565b60006040820190506108bc6000830185610889565b6108c96020830184610898565b9392505050565b600081519050919050565b600082825260208201905092915050565b6000819050602082019050919050565b61090581610877565b82525050565b610914816107f4565b82525050565b60408201600082015161093060008501826108fc565b506020820151610943602085018261090b565b50505050565b6000610955838361091a565b60408301905092915050565b6000602082019050919050565b6000610979826108d0565b61098381856108db565b935061098e836108ec565b8060005b838110156109bf5781516109a68882610949565b97506109b183610961565b925050600181019050610992565b5085935050505092915050565b600060208201905081810360008301526109e6818461096e565b905092915050565b6000602082019050610a036000830184610889565b92915050565b6000610a1482610857565b9050919050565b610a2481610a09565b8114610a2f57600080fd5b50565b600081359050610a4181610a1b565b92915050565b600060208284031215610a5d57610a5c6107ef565b5b6000610a6b84828501610a32565b91505092915050565b604082016000820151610a8a60008501826108fc565b506020820151610a9d602085018261090b565b50505050565b6000604082019050610ab86000830184610a74565b92915050565b610ac781610877565b8114610ad257600080fd5b50565b600081359050610ae481610abe565b92915050565b600060208284031215610b0057610aff6107ef565b5b6000610b0e84828501610ad5565b91505092915050565b600082825260208201905092915050565b7f4f776e61626c653a2063616c6c6572206973206e6f7420746865206f776e6572600082015250565b6000610b5e602083610b17565b9150610b6982610b28565b602082019050919050565b60006020820190508181036000830152610b8d81610b51565b9050919050565b7f4e487b7100000000000000000000000000000000000000000000000000000000600052601160045260246000fd5b6000610bce826107f4565b9150610bd9836107f4565b925082821015610bec57610beb610b94565b5b828203905092915050565b7f4e487b7100000000000000000000000000000000000000000000000000000000600052603260045260246000fd5b7f4f776e61626c653a206e6577206f776e657220697320746865207a65726f206160008201527f6464726573730000000000000000000000000000000000000000000000000000602082015250565b6000610c82602683610b17565b9150610c8d82610c26565b604082019050919050565b60006020820190508181036000830152610cb181610c75565b9050919050565b600081905092915050565b50565b6000610cd3600083610cb8565b9150610cde82610cc3565b600082019050919050565b6000610cf482610cc6565b9150819050919050565b7f6661696c656420746f2073656e64204574686572000000000000000000000000600082015250565b6000610d34601483610b17565b9150610d3f82610cfe565b602082019050919050565b60006020820190508181036000830152610d6381610d27565b905091905056fea2646970667358221220906a30cfa09700d93a47a275630011bfdd330084f96298238ccf209c5a4ec60a64736f6c634300080b0033",
  "immutableReferences": {},
  "source": "// SPDX-License-Identifier: MIT\n\npragma solidity ^0.8.0;\n\nimport \"@openzeppelin/contracts/access/Ownable.sol\";\nimport \"./ReceiverStruct.sol\";\n\ncontract CompletionContract is Ownable {\n    // event Transferred(address _receiver, uint256 _amount);\n\n    Receiver[] public pastReceivers;\n\n    constructor() payable {}\n\n    receive() external payable {}\n\n    fallback() external payable {}\n\n    function transferStakedBalance(address payable _receiver) public onlyOwner {\n        uint256 balance = address(this).balance;\n        _transfer(_receiver, balance);\n        pastReceivers.push(Receiver(_receiver, balance));\n\n        // emit Transferred(_receiver, balance);\n    }\n\n    function _transfer(address payable _to, uint256 _amount) private {\n        (bool success, ) = _to.call{value: _amount}(\"\");\n        require(success, \"failed to send Ether\");\n    }\n\n    function getPastReceivers() public view returns (Receiver[] memory) {\n        return pastReceivers;\n    }\n\n    function getLastReciver() public view returns (Receiver memory) {\n        return pastReceivers[pastReceivers.length - 1];\n    }\n}\n",
  "sourcePath": "/home/dan/Projects/web3/truffle/staking-dapp/contracts/CompletionContract.sol",
  "compiler": {
    "name": "solc",
    "version": "0.8.11+commit.d7f03943.Emscripten.clang"
  },
  "schemaVersion": "3.4.4",
  "updatedAt": "2022-02-11T09:48:10.816Z",
  "networkType": "ethereum",
  "devdoc": {
    "kind": "dev",
    "methods": {
      "owner()": {
        "details": "Returns the address of the current owner."
      },
      "renounceOwnership()": {
        "details": "Leaves the contract without owner. It will not be possible to call `onlyOwner` functions anymore. Can only be called by the current owner. NOTE: Renouncing ownership will leave the contract without an owner, thereby removing any functionality that is only available to the owner."
      },
      "transferOwnership(address)": {
        "details": "Transfers ownership of the contract to a new account (`newOwner`). Can only be called by the current owner."
      }
    },
    "version": 1
  },
  "userdoc": {
    "kind": "user",
    "methods": {},
    "version": 1
  }
}