{
  "contractName": "Staker",
  "abi": [
    {
      "inputs": [],
      "stateMutability": "nonpayable",
      "type": "constructor"
    },
    {
      "anonymous": false,
      "inputs": [
        {
          "indexed": false,
          "internalType": "address",
          "name": "_to",
          "type": "address"
        },
        {
          "indexed": false,
          "internalType": "uint256",
          "name": "_value",
          "type": "uint256"
        }
      ],
      "name": "Awarded",
      "type": "event"
    },
    {
      "anonymous": false,
      "inputs": [
        {
          "indexed": true,
          "internalType": "address",
          "name": "previousOwner",
          "type": "address"
        },
        {
          "indexed": true,
          "internalType": "address",
          "name": "newOwner",
          "type": "address"
        }
      ],
      "name": "OwnershipTransferred",
      "type": "event"
    },
    {
      "anonymous": false,
      "inputs": [
        {
          "indexed": true,
          "internalType": "address",
          "name": "_from",
          "type": "address"
        },
        {
          "indexed": false,
          "internalType": "uint256",
          "name": "_value",
          "type": "uint256"
        }
      ],
      "name": "Staked",
      "type": "event"
    },
    {
      "anonymous": false,
      "inputs": [
        {
          "indexed": false,
          "internalType": "uint256",
          "name": "_amountStaked",
          "type": "uint256"
        }
      ],
      "name": "StakingCompleted",
      "type": "event"
    },
    {
      "anonymous": false,
      "inputs": [
        {
          "indexed": true,
          "internalType": "address",
          "name": "_from",
          "type": "address"
        },
        {
          "indexed": false,
          "internalType": "uint256",
          "name": "_value",
          "type": "uint256"
        }
      ],
      "name": "Withdraw",
      "type": "event"
    },
    {
      "stateMutability": "payable",
      "type": "fallback",
      "payable": true
    },
    {
      "inputs": [],
      "name": "completionContract",
      "outputs": [
        {
          "internalType": "contract CompletionContract",
          "name": "",
          "type": "address"
        }
      ],
      "stateMutability": "view",
      "type": "function",
      "constant": true
    },
    {
      "inputs": [],
      "name": "owner",
      "outputs": [
        {
          "internalType": "address",
          "name": "",
          "type": "address"
        }
      ],
      "stateMutability": "view",
      "type": "function",
      "constant": true
    },
    {
      "inputs": [],
      "name": "renounceOwnership",
      "outputs": [],
      "stateMutability": "nonpayable",
      "type": "function"
    },
    {
      "inputs": [
        {
          "internalType": "address",
          "name": "",
          "type": "address"
        }
      ],
      "name": "stakedBalances",
      "outputs": [
        {
          "internalType": "uint256",
          "name": "",
          "type": "uint256"
        }
      ],
      "stateMutability": "view",
      "type": "function",
      "constant": true
    },
    {
      "inputs": [
        {
          "internalType": "uint256",
          "name": "",
          "type": "uint256"
        }
      ],
      "name": "stakers",
      "outputs": [
        {
          "internalType": "address",
          "name": "",
          "type": "address"
        }
      ],
      "stateMutability": "view",
      "type": "function",
      "constant": true
    },
    {
      "inputs": [],
      "name": "status",
      "outputs": [
        {
          "internalType": "enum Staker.StakingStatus",
          "name": "",
          "type": "uint8"
        }
      ],
      "stateMutability": "view",
      "type": "function",
      "constant": true
    },
    {
      "inputs": [
        {
          "internalType": "address",
          "name": "newOwner",
          "type": "address"
        }
      ],
      "name": "transferOwnership",
      "outputs": [],
      "stateMutability": "nonpayable",
      "type": "function"
    },
    {
      "stateMutability": "payable",
      "type": "receive",
      "payable": true
    },
    {
      "inputs": [],
      "name": "stake",
      "outputs": [],
      "stateMutability": "payable",
      "type": "function",
      "payable": true
    },
    {
      "inputs": [],
      "name": "getTotalStakedAmount",
      "outputs": [
        {
          "internalType": "uint256",
          "name": "",
          "type": "uint256"
        }
      ],
      "stateMutability": "view",
      "type": "function",
      "constant": true
    },
    {
      "inputs": [],
      "name": "withdraw",
      "outputs": [],
      "stateMutability": "nonpayable",
      "type": "function"
    },
    {
      "inputs": [],
      "name": "closeStaking",
      "outputs": [],
      "stateMutability": "nonpayable",
      "type": "function"
    },
    {
      "inputs": [],
      "name": "completeStaking",
      "outputs": [],
      "stateMutability": "nonpayable",
      "type": "function"
    },
    {
      "inputs": [],
      "name": "getStatus",
      "outputs": [
        {
          "internalType": "uint8",
          "name": "",
          "type": "uint8"
        }
      ],
      "stateMutability": "view",
      "type": "function",
      "constant": true
    },
    {
      "inputs": [],
      "name": "getNumberOfStakers",
      "outputs": [
        {
          "internalType": "uint256",
          "name": "",
          "type": "uint256"
        }
      ],
      "stateMutability": "view",
      "type": "function",
      "constant": true
    },
    {
      "inputs": [
        {
          "internalType": "address",
          "name": "_user",
          "type": "address"
        }
      ],
      "name": "getUserStakedAmount",
      "outputs": [
        {
          "internalType": "uint256",
          "name": "",
          "type": "uint256"
        }
      ],
      "stateMutability": "view",
      "type": "function",
      "constant": true
    },
    {
      "inputs": [
        {
          "internalType": "address payable",
          "name": "_to",
          "type": "address"
        }
      ],
      "name": "awardStakedBalance",
      "outputs": [],
      "stateMutability": "nonpayable",
      "type": "function"
    },
    {
      "inputs": [],
      "name": "restartStaking",
      "outputs": [],
      "stateMutability": "nonpayable",
      "type": "function"
    },
    {
      "inputs": [],
      "name": "getPastReceivers",
      "outputs": [
        {
          "components": [
            {
              "internalType": "address",
              "name": "receiverAddress",
              "type": "address"
            },
            {
              "internalType": "uint256",
              "name": "amount",
              "type": "uint256"
            }
          ],
          "internalType": "struct Receiver[]",
          "name": "",
          "type": "tuple[]"
        }
      ],
      "stateMutability": "view",
      "type": "function",
      "constant": true
    },
    {
      "inputs": [],
      "name": "getLastReciver",
      "outputs": [
        {
          "components": [
            {
              "internalType": "address",
              "name": "receiverAddress",
              "type": "address"
            },
            {
              "internalType": "uint256",
              "name": "amount",
              "type": "uint256"
            }
          ],
          "internalType": "struct Receiver",
          "name": "",
          "type": "tuple"
        }
      ],
      "stateMutability": "view",
      "type": "function",
      "constant": true
    }
  ],
  "bytecode": "0x60806040523480156200001157600080fd5b5062000032620000266200013460201b60201c565b6200013c60201b60201c565b604051620000409062000200565b604051809103906000f0801580156200005d573d6000803e3d6000fd5b50600460006101000a81548173ffffffffffffffffffffffffffffffffffffffff021916908373ffffffffffffffffffffffffffffffffffffffff160217905550600460009054906101000a900473ffffffffffffffffffffffffffffffffffffffff16600560006101000a81548173ffffffffffffffffffffffffffffffffffffffff021916908373ffffffffffffffffffffffffffffffffffffffff16021790555060008060146101000a81548160ff021916908360038111156200012957620001286200020e565b5b02179055506200023d565b600033905090565b60008060009054906101000a900473ffffffffffffffffffffffffffffffffffffffff169050816000806101000a81548173ffffffffffffffffffffffffffffffffffffffff021916908373ffffffffffffffffffffffffffffffffffffffff1602179055508173ffffffffffffffffffffffffffffffffffffffff168173ffffffffffffffffffffffffffffffffffffffff167f8be0079c531659141344cd1fd0a4f28419497f9722a3daafe3b4186f6b6457e060405160405180910390a35050565b610ea080620027b783390190565b7f4e487b7100000000000000000000000000000000000000000000000000000000600052602160045260246000fd5b61256a806200024d6000396000f3fe6080604052600436106101185760003560e01c8063715018a6116100a057806398cfe5871161006457806398cfe58714610350578063d35c073414610367578063f2fde38b14610392578063fd5e6dd1146103bb578063fe1d3795146103f857610127565b8063715018a61461029157806379e8bd21146102a8578063824761d5146102bf5780638da5cb5b146102e857806394465b211461031357610127565b80633b86425d116100e75780633b86425d146101ce5780633ccfd60b146101f95780634e69d56014610210578063612babdb1461023b578063658b67291461026657610127565b80631460fa8714610131578063200d2ed21461016e57806338adb6f0146101995780633a4b66f1146101c457610127565b366101275761012561040f565b005b61012f61040f565b005b34801561013d57600080fd5b5061015860048036038101906101539190611764565b610640565b60405161016591906117aa565b60405180910390f35b34801561017a57600080fd5b50610183610658565b604051610190919061183c565b60405180910390f35b3480156101a557600080fd5b506101ae61066b565b6040516101bb91906117aa565b60405180910390f35b6101cc610728565b005b3480156101da57600080fd5b506101e3610732565b6040516101f09190611953565b60405180910390f35b34801561020557600080fd5b5061020e6107cf565b005b34801561021c57600080fd5b50610225610a52565b6040516102329190611991565b60405180910390f35b34801561024757600080fd5b50610250610a7a565b60405161025d9190611a0b565b60405180910390f35b34801561027257600080fd5b5061027b610aa0565b60405161028891906117aa565b60405180910390f35b34801561029d57600080fd5b506102a6610aad565b005b3480156102b457600080fd5b506102bd610b35565b005b3480156102cb57600080fd5b506102e660048036038101906102e19190611a64565b610c90565b005b3480156102f457600080fd5b506102fd610eb5565b60405161030a9190611aa0565b60405180910390f35b34801561031f57600080fd5b5061033a60048036038101906103359190611764565b610ede565b60405161034791906117aa565b60405180910390f35b34801561035c57600080fd5b50610365610f27565b005b34801561037357600080fd5b5061037c610fd0565b6040516103899190611aea565b60405180910390f35b34801561039e57600080fd5b506103b960048036038101906103b49190611764565b61106d565b005b3480156103c757600080fd5b506103e260048036038101906103dd9190611b31565b611165565b6040516103ef9190611aa0565b60405180910390f35b34801561040457600080fd5b5061040d6111a4565b005b60006003811115610423576104226117c5565b5b600060149054906101000a900460ff166003811115610445576104446117c5565b5b14610485576040517f08c379a000000000000000000000000000000000000000000000000000000000815260040161047c90611bbb565b60405180910390fd5b60001515600360003373ffffffffffffffffffffffffffffffffffffffff1673ffffffffffffffffffffffffffffffffffffffff16815260200190815260200160002060009054906101000a900460ff161515141561059a576002339080600181540180825580915050600190039060005260206000200160009091909190916101000a81548173ffffffffffffffffffffffffffffffffffffffff021916908373ffffffffffffffffffffffffffffffffffffffff1602179055506001600360003373ffffffffffffffffffffffffffffffffffffffff1673ffffffffffffffffffffffffffffffffffffffff16815260200190815260200160002060006101000a81548160ff0219169083151502179055505b34600160003373ffffffffffffffffffffffffffffffffffffffff1673ffffffffffffffffffffffffffffffffffffffff16815260200190815260200160002060008282546105e99190611c0a565b925050819055503373ffffffffffffffffffffffffffffffffffffffff167f9e71bc8eea02a63969f509818f2dafb9254532904319f9dbda79b67bd34a5f3d3460405161063691906117aa565b60405180910390a2565b60016020528060005260406000206000915090505481565b600060149054906101000a900460ff1681565b6000806000905060005b60028054905081101561072057600160006002838154811061069a57610699611c60565b5b9060005260206000200160009054906101000a900473ffffffffffffffffffffffffffffffffffffffff1673ffffffffffffffffffffffffffffffffffffffff1673ffffffffffffffffffffffffffffffffffffffff168152602001908152602001600020548261070b9190611c0a565b9150808061071890611c8f565b915050610675565b508091505090565b61073061040f565b565b6060600460009054906101000a900473ffffffffffffffffffffffffffffffffffffffff1673ffffffffffffffffffffffffffffffffffffffff16633b86425d6040518163ffffffff1660e01b8152600401600060405180830381865afa1580156107a1573d6000803e3d6000fd5b505050506040513d6000823e3d601f19601f820116820180604052508101906107ca9190611eb0565b905090565b600160038111156107e3576107e26117c5565b5b600060149054906101000a900460ff166003811115610805576108046117c5565b5b14610845576040517f08c379a000000000000000000000000000000000000000000000000000000000815260040161083c90611f6b565b60405180910390fd5b6000600160003373ffffffffffffffffffffffffffffffffffffffff1673ffffffffffffffffffffffffffffffffffffffff168152602001908152602001600020549050478110156108cc576040517f08c379a00000000000000000000000000000000000000000000000000000000081526004016108c390611ffd565b60405180910390fd5b6000811161090f576040517f08c379a00000000000000000000000000000000000000000000000000000000081526004016109069061208f565b60405180910390fd5b60003373ffffffffffffffffffffffffffffffffffffffff1682604051610935906120e0565b60006040518083038185875af1925050503d8060008114610972576040519150601f19603f3d011682016040523d82523d6000602084013e610977565b606091505b50509050806109bb576040517f08c379a00000000000000000000000000000000000000000000000000000000081526004016109b290612141565b60405180910390fd5b6000600160003373ffffffffffffffffffffffffffffffffffffffff1673ffffffffffffffffffffffffffffffffffffffff168152602001908152602001600020819055503373ffffffffffffffffffffffffffffffffffffffff167f884edad9ce6fa2440d8a54cc123490eb96d2768479d49ff9c7366125a942436483604051610a4691906117aa565b60405180910390a25050565b60008060149054906101000a900460ff166003811115610a7557610a746117c5565b5b905090565b600460009054906101000a900473ffffffffffffffffffffffffffffffffffffffff1681565b6000600280549050905090565b610ab561149e565b73ffffffffffffffffffffffffffffffffffffffff16610ad3610eb5565b73ffffffffffffffffffffffffffffffffffffffff1614610b29576040517f08c379a0000000000000000000000000000000000000000000000000000000008152600401610b20906121ad565b60405180910390fd5b610b3360006114a6565b565b610b3d61149e565b73ffffffffffffffffffffffffffffffffffffffff16610b5b610eb5565b73ffffffffffffffffffffffffffffffffffffffff1614610bb1576040517f08c379a0000000000000000000000000000000000000000000000000000000008152600401610ba8906121ad565b60405180910390fd5b600380811115610bc457610bc36117c5565b5b600060149054906101000a900460ff166003811115610be657610be56117c5565b5b1480610c25575060016003811115610c0157610c006117c5565b5b600060149054906101000a900460ff166003811115610c2357610c226117c5565b5b145b610c64576040517f08c379a0000000000000000000000000000000000000000000000000000000008152600401610c5b9061223f565b60405180910390fd5b60008060146101000a81548160ff02191690836003811115610c8957610c886117c5565b5b0217905550565b610c9861149e565b73ffffffffffffffffffffffffffffffffffffffff16610cb6610eb5565b73ffffffffffffffffffffffffffffffffffffffff1614610d0c576040517f08c379a0000000000000000000000000000000000000000000000000000000008152600401610d03906121ad565b60405180910390fd5b60026003811115610d2057610d1f6117c5565b5b600060149054906101000a900460ff166003811115610d4257610d416117c5565b5b14610d82576040517f08c379a0000000000000000000000000000000000000000000000000000000008152600401610d79906122d1565b60405180910390fd5b6000600460009054906101000a900473ffffffffffffffffffffffffffffffffffffffff1673ffffffffffffffffffffffffffffffffffffffff16319050600460009054906101000a900473ffffffffffffffffffffffffffffffffffffffff1673ffffffffffffffffffffffffffffffffffffffff1663a8cd55d1836040518263ffffffff1660e01b8152600401610e1b9190612300565b600060405180830381600087803b158015610e3557600080fd5b505af1158015610e49573d6000803e3d6000fd5b505050506003600060146101000a81548160ff02191690836003811115610e7357610e726117c5565b5b02179055507fcd8ae3717c1e5ff5eae19e78399c4db942424faf048bca1b2774ac2a7c3d70a58282604051610ea992919061234e565b60405180910390a15050565b60008060009054906101000a900473ffffffffffffffffffffffffffffffffffffffff16905090565b6000600160008373ffffffffffffffffffffffffffffffffffffffff1673ffffffffffffffffffffffffffffffffffffffff168152602001908152602001600020549050919050565b610f2f61149e565b73ffffffffffffffffffffffffffffffffffffffff16610f4d610eb5565b73ffffffffffffffffffffffffffffffffffffffff1614610fa3576040517f08c379a0000000000000000000000000000000000000000000000000000000008152600401610f9a906121ad565b60405180910390fd5b6001600060146101000a81548160ff02191690836003811115610fc957610fc86117c5565b5b0217905550565b610fd861161b565b600460009054906101000a900473ffffffffffffffffffffffffffffffffffffffff1673ffffffffffffffffffffffffffffffffffffffff1663d35c07346040518163ffffffff1660e01b81526004016040805180830381865afa158015611044573d6000803e3d6000fd5b505050506040513d601f19601f820116820180604052508101906110689190612377565b905090565b61107561149e565b73ffffffffffffffffffffffffffffffffffffffff16611093610eb5565b73ffffffffffffffffffffffffffffffffffffffff16146110e9576040517f08c379a00000000000000000000000000000000000000000000000000000000081526004016110e0906121ad565b60405180910390fd5b600073ffffffffffffffffffffffffffffffffffffffff168173ffffffffffffffffffffffffffffffffffffffff161415611159576040517f08c379a000000000000000000000000000000000000000000000000000000000815260040161115090612416565b60405180910390fd5b611162816114a6565b50565b6002818154811061117557600080fd5b906000526020600020016000915054906101000a900473ffffffffffffffffffffffffffffffffffffffff1681565b6111ac61149e565b73ffffffffffffffffffffffffffffffffffffffff166111ca610eb5565b73ffffffffffffffffffffffffffffffffffffffff1614611220576040517f08c379a0000000000000000000000000000000000000000000000000000000008152600401611217906121ad565b60405180910390fd5b6000479050670de0b6b3a7640000811015611270576040517f08c379a0000000000000000000000000000000000000000000000000000000008152600401611267906124a8565b60405180910390fd5b61129c600560009054906101000a900473ffffffffffffffffffffffffffffffffffffffff168261156a565b60005b6002805490508110156113d857600060016000600284815481106112c6576112c5611c60565b5b9060005260206000200160009054906101000a900473ffffffffffffffffffffffffffffffffffffffff1673ffffffffffffffffffffffffffffffffffffffff1673ffffffffffffffffffffffffffffffffffffffff168152602001908152602001600020819055506000600360006002848154811061134957611348611c60565b5b9060005260206000200160009054906101000a900473ffffffffffffffffffffffffffffffffffffffff1673ffffffffffffffffffffffffffffffffffffffff1673ffffffffffffffffffffffffffffffffffffffff16815260200190815260200160002060006101000a81548160ff02191690831515021790555080806113d090611c8f565b91505061129f565b50600067ffffffffffffffff8111156113f4576113f3611cee565b5b6040519080825280602002602001820160405280156114225781602001602082028036833780820191505090505b506002908051906020019061143892919061164b565b506002600060146101000a81548160ff0219169083600381111561145f5761145e6117c5565b5b02179055507f20c2ec7b8a9676c715986ce2068de00d5acf2628559326492fc25462641576ae8160405161149391906117aa565b60405180910390a150565b600033905090565b60008060009054906101000a900473ffffffffffffffffffffffffffffffffffffffff169050816000806101000a81548173ffffffffffffffffffffffffffffffffffffffff021916908373ffffffffffffffffffffffffffffffffffffffff1602179055508173ffffffffffffffffffffffffffffffffffffffff168173ffffffffffffffffffffffffffffffffffffffff167f8be0079c531659141344cd1fd0a4f28419497f9722a3daafe3b4186f6b6457e060405160405180910390a35050565b60008273ffffffffffffffffffffffffffffffffffffffff1682604051611590906120e0565b60006040518083038185875af1925050503d80600081146115cd576040519150601f19603f3d011682016040523d82523d6000602084013e6115d2565b606091505b5050905080611616576040517f08c379a000000000000000000000000000000000000000000000000000000000815260040161160d90612514565b60405180910390fd5b505050565b6040518060400160405280600073ffffffffffffffffffffffffffffffffffffffff168152602001600081525090565b8280548282559060005260206000209081019282156116c4579160200282015b828111156116c35782518260006101000a81548173ffffffffffffffffffffffffffffffffffffffff021916908373ffffffffffffffffffffffffffffffffffffffff1602179055509160200191906001019061166b565b5b5090506116d191906116d5565b5090565b5b808211156116ee5760008160009055506001016116d6565b5090565b6000604051905090565b600080fd5b600080fd5b600073ffffffffffffffffffffffffffffffffffffffff82169050919050565b600061173182611706565b9050919050565b61174181611726565b811461174c57600080fd5b50565b60008135905061175e81611738565b92915050565b60006020828403121561177a576117796116fc565b5b60006117888482850161174f565b91505092915050565b6000819050919050565b6117a481611791565b82525050565b60006020820190506117bf600083018461179b565b92915050565b7f4e487b7100000000000000000000000000000000000000000000000000000000600052602160045260246000fd5b60048110611805576118046117c5565b5b50565b6000819050611816826117f4565b919050565b600061182682611808565b9050919050565b6118368161181b565b82525050565b6000602082019050611851600083018461182d565b92915050565b600081519050919050565b600082825260208201905092915050565b6000819050602082019050919050565b61188c81611726565b82525050565b61189b81611791565b82525050565b6040820160008201516118b76000850182611883565b5060208201516118ca6020850182611892565b50505050565b60006118dc83836118a1565b60408301905092915050565b6000602082019050919050565b600061190082611857565b61190a8185611862565b935061191583611873565b8060005b8381101561194657815161192d88826118d0565b9750611938836118e8565b925050600181019050611919565b5085935050505092915050565b6000602082019050818103600083015261196d81846118f5565b905092915050565b600060ff82169050919050565b61198b81611975565b82525050565b60006020820190506119a66000830184611982565b92915050565b6000819050919050565b60006119d16119cc6119c784611706565b6119ac565b611706565b9050919050565b60006119e3826119b6565b9050919050565b60006119f5826119d8565b9050919050565b611a05816119ea565b82525050565b6000602082019050611a2060008301846119fc565b92915050565b6000611a3182611706565b9050919050565b611a4181611a26565b8114611a4c57600080fd5b50565b600081359050611a5e81611a38565b92915050565b600060208284031215611a7a57611a796116fc565b5b6000611a8884828501611a4f565b91505092915050565b611a9a81611726565b82525050565b6000602082019050611ab56000830184611a91565b92915050565b604082016000820151611ad16000850182611883565b506020820151611ae46020850182611892565b50505050565b6000604082019050611aff6000830184611abb565b92915050565b611b0e81611791565b8114611b1957600080fd5b50565b600081359050611b2b81611b05565b92915050565b600060208284031215611b4757611b466116fc565b5b6000611b5584828501611b1c565b91505092915050565b600082825260208201905092915050565b7f7374616b696e672069732063757272656e746c79206e6f74206f70656e000000600082015250565b6000611ba5601d83611b5e565b9150611bb082611b6f565b602082019050919050565b60006020820190508181036000830152611bd481611b98565b9050919050565b7f4e487b7100000000000000000000000000000000000000000000000000000000600052601160045260246000fd5b6000611c1582611791565b9150611c2083611791565b9250827fffffffffffffffffffffffffffffffffffffffffffffffffffffffffffffffff03821115611c5557611c54611bdb565b5b828201905092915050565b7f4e487b7100000000000000000000000000000000000000000000000000000000600052603260045260246000fd5b6000611c9a82611791565b91507fffffffffffffffffffffffffffffffffffffffffffffffffffffffffffffffff821415611ccd57611ccc611bdb565b5b600182019050919050565b600080fd5b6000601f19601f8301169050919050565b7f4e487b7100000000000000000000000000000000000000000000000000000000600052604160045260246000fd5b611d2682611cdd565b810181811067ffffffffffffffff82111715611d4557611d44611cee565b5b80604052505050565b6000611d586116f2565b9050611d648282611d1d565b919050565b600067ffffffffffffffff821115611d8457611d83611cee565b5b602082029050602081019050919050565b600080fd5b600080fd5b600081519050611dae81611738565b92915050565b600081519050611dc381611b05565b92915050565b600060408284031215611ddf57611dde611d9a565b5b611de96040611d4e565b90506000611df984828501611d9f565b6000830152506020611e0d84828501611db4565b60208301525092915050565b6000611e2c611e2784611d69565b611d4e565b90508083825260208201905060408402830185811115611e4f57611e4e611d95565b5b835b81811015611e785780611e648882611dc9565b845260208401935050604081019050611e51565b5050509392505050565b600082601f830112611e9757611e96611cd8565b5b8151611ea7848260208601611e19565b91505092915050565b600060208284031215611ec657611ec56116fc565b5b600082015167ffffffffffffffff811115611ee457611ee3611701565b5b611ef084828501611e82565b91505092915050565b7f7374616b696e672069732063757272656e746c79206e6f7420636c6f7365642e60008201527f2063616e6e6f7420776974686472617700000000000000000000000000000000602082015250565b6000611f55603083611b5e565b9150611f6082611ef9565b604082019050919050565b60006020820190508181036000830152611f8481611f48565b9050919050565b7f696e73756666696369656e742062616c616e6365212063616e6e6f742069737360008201527f7565207769746864726177616c21000000000000000000000000000000000000602082015250565b6000611fe7602e83611b5e565b9150611ff282611f8b565b604082019050919050565b6000602082019050818103600083015261201681611fda565b9050919050565b7f63616e6e6f742077697468647261772c20796f752068617665206e6f7420737460008201527f616b656420616e7920616d6f756e740000000000000000000000000000000000602082015250565b6000612079602f83611b5e565b91506120848261201d565b604082019050919050565b600060208201905081810360008301526120a88161206c565b9050919050565b600081905092915050565b50565b60006120ca6000836120af565b91506120d5826120ba565b600082019050919050565b60006120eb826120bd565b9150819050919050565b7f756e61626c6520746f20636f6d706c657465207769746864726177616c000000600082015250565b600061212b601d83611b5e565b9150612136826120f5565b602082019050919050565b6000602082019050818103600083015261215a8161211e565b9050919050565b7f4f776e61626c653a2063616c6c6572206973206e6f7420746865206f776e6572600082015250565b6000612197602083611b5e565b91506121a282612161565b602082019050919050565b600060208201905081810360008301526121c68161218a565b9050919050565b7f7374616b696e67206d7573742068617665206265656e2061776172646564206f60008201527f7220697320636c6f736564000000000000000000000000000000000000000000602082015250565b6000612229602b83611b5e565b9150612234826121cd565b604082019050919050565b600060208201905081810360008301526122588161221c565b9050919050565b7f7374616b696e672069732063757272656e746c79206e6f7420636f6d706c657460008201527f6500000000000000000000000000000000000000000000000000000000000000602082015250565b60006122bb602183611b5e565b91506122c68261225f565b604082019050919050565b600060208201905081810360008301526122ea816122ae565b9050919050565b6122fa81611a26565b82525050565b600060208201905061231560008301846122f1565b92915050565b6000612326826119b6565b9050919050565b60006123388261231b565b9050919050565b6123488161232d565b82525050565b6000604082019050612363600083018561233f565b612370602083018461179b565b9392505050565b60006040828403121561238d5761238c6116fc565b5b600061239b84828501611dc9565b91505092915050565b7f4f776e61626c653a206e6577206f776e657220697320746865207a65726f206160008201527f6464726573730000000000000000000000000000000000000000000000000000602082015250565b6000612400602683611b5e565b915061240b826123a4565b604082019050919050565b6000602082019050818103600083015261242f816123f3565b9050919050565b7f7374616b656420616d6f756e7420686173206e6f74207265616368656420746860008201527f726573686f6c6400000000000000000000000000000000000000000000000000602082015250565b6000612492602783611b5e565b915061249d82612436565b604082019050919050565b600060208201905081810360008301526124c181612485565b9050919050565b7f6661696c656420746f2073656e64204574686572000000000000000000000000600082015250565b60006124fe601483611b5e565b9150612509826124c8565b602082019050919050565b6000602082019050818103600083015261252d816124f1565b905091905056fea26469706673582212205841737102813203aa20892ce03cabdfd8760e22819b3531298ee7478634b8e864736f6c634300080b0033608060405261002061001561002560201b60201c565b61002d60201b60201c565b6100f1565b600033905090565b60008060009054906101000a900473ffffffffffffffffffffffffffffffffffffffff169050816000806101000a81548173ffffffffffffffffffffffffffffffffffffffff021916908373ffffffffffffffffffffffffffffffffffffffff1602179055508173ffffffffffffffffffffffffffffffffffffffff168173ffffffffffffffffffffffffffffffffffffffff167f8be0079c531659141344cd1fd0a4f28419497f9722a3daafe3b4186f6b6457e060405160405180910390a35050565b610da0806101006000396000f3fe6080604052600436106100745760003560e01c80638da5cb5b1161004e5780638da5cb5b146100fd578063a8cd55d114610128578063d35c073414610151578063f2fde38b1461017c5761007b565b80631e21afd51461007d5780633b86425d146100bb578063715018a6146100e65761007b565b3661007b57005b005b34801561008957600080fd5b506100a4600480360381019061009f919061082a565b6101a5565b6040516100b29291906108a7565b60405180910390f35b3480156100c757600080fd5b506100d06101f9565b6040516100dd91906109cc565b60405180910390f35b3480156100f257600080fd5b506100fb6102b8565b005b34801561010957600080fd5b50610112610340565b60405161011f91906109ee565b60405180910390f35b34801561013457600080fd5b5061014f600480360381019061014a9190610a47565b610369565b005b34801561015d57600080fd5b506101666104a1565b6040516101739190610aa3565b60405180910390f35b34801561018857600080fd5b506101a3600480360381019061019e9190610aea565b61054a565b005b600181815481106101b557600080fd5b90600052602060002090600202016000915090508060000160009054906101000a900473ffffffffffffffffffffffffffffffffffffffff16908060010154905082565b60606001805480602002602001604051908101604052809291908181526020016000905b828210156102af57838290600052602060002090600202016040518060400160405290816000820160009054906101000a900473ffffffffffffffffffffffffffffffffffffffff1673ffffffffffffffffffffffffffffffffffffffff1673ffffffffffffffffffffffffffffffffffffffff1681526020016001820154815250508152602001906001019061021d565b50505050905090565b6102c0610642565b73ffffffffffffffffffffffffffffffffffffffff166102de610340565b73ffffffffffffffffffffffffffffffffffffffff1614610334576040517f08c379a000000000000000000000000000000000000000000000000000000000815260040161032b90610b74565b60405180910390fd5b61033e600061064a565b565b60008060009054906101000a900473ffffffffffffffffffffffffffffffffffffffff16905090565b610371610642565b73ffffffffffffffffffffffffffffffffffffffff1661038f610340565b73ffffffffffffffffffffffffffffffffffffffff16146103e5576040517f08c379a00000000000000000000000000000000000000000000000000000000081526004016103dc90610b74565b60405180910390fd5b60004790506103f4828261070e565b600160405180604001604052808473ffffffffffffffffffffffffffffffffffffffff16815260200183815250908060018154018082558091505060019003906000526020600020906002020160009091909190915060008201518160000160006101000a81548173ffffffffffffffffffffffffffffffffffffffff021916908373ffffffffffffffffffffffffffffffffffffffff1602179055506020820151816001015550505050565b6104a96107bf565b60018080805490506104bb9190610bc3565b815481106104cc576104cb610bf7565b5b90600052602060002090600202016040518060400160405290816000820160009054906101000a900473ffffffffffffffffffffffffffffffffffffffff1673ffffffffffffffffffffffffffffffffffffffff1673ffffffffffffffffffffffffffffffffffffffff168152602001600182015481525050905090565b610552610642565b73ffffffffffffffffffffffffffffffffffffffff16610570610340565b73ffffffffffffffffffffffffffffffffffffffff16146105c6576040517f08c379a00000000000000000000000000000000000000000000000000000000081526004016105bd90610b74565b60405180910390fd5b600073ffffffffffffffffffffffffffffffffffffffff168173ffffffffffffffffffffffffffffffffffffffff161415610636576040517f08c379a000000000000000000000000000000000000000000000000000000000815260040161062d90610c98565b60405180910390fd5b61063f8161064a565b50565b600033905090565b60008060009054906101000a900473ffffffffffffffffffffffffffffffffffffffff169050816000806101000a81548173ffffffffffffffffffffffffffffffffffffffff021916908373ffffffffffffffffffffffffffffffffffffffff1602179055508173ffffffffffffffffffffffffffffffffffffffff168173ffffffffffffffffffffffffffffffffffffffff167f8be0079c531659141344cd1fd0a4f28419497f9722a3daafe3b4186f6b6457e060405160405180910390a35050565b60008273ffffffffffffffffffffffffffffffffffffffff168260405161073490610ce9565b60006040518083038185875af1925050503d8060008114610771576040519150601f19603f3d011682016040523d82523d6000602084013e610776565b606091505b50509050806107ba576040517f08c379a00000000000000000000000000000000000000000000000000000000081526004016107b190610d4a565b60405180910390fd5b505050565b6040518060400160405280600073ffffffffffffffffffffffffffffffffffffffff168152602001600081525090565b600080fd5b6000819050919050565b610807816107f4565b811461081257600080fd5b50565b600081359050610824816107fe565b92915050565b6000602082840312156108405761083f6107ef565b5b600061084e84828501610815565b91505092915050565b600073ffffffffffffffffffffffffffffffffffffffff82169050919050565b600061088282610857565b9050919050565b61089281610877565b82525050565b6108a1816107f4565b82525050565b60006040820190506108bc6000830185610889565b6108c96020830184610898565b9392505050565b600081519050919050565b600082825260208201905092915050565b6000819050602082019050919050565b61090581610877565b82525050565b610914816107f4565b82525050565b60408201600082015161093060008501826108fc565b506020820151610943602085018261090b565b50505050565b6000610955838361091a565b60408301905092915050565b6000602082019050919050565b6000610979826108d0565b61098381856108db565b935061098e836108ec565b8060005b838110156109bf5781516109a68882610949565b97506109b183610961565b925050600181019050610992565b5085935050505092915050565b600060208201905081810360008301526109e6818461096e565b905092915050565b6000602082019050610a036000830184610889565b92915050565b6000610a1482610857565b9050919050565b610a2481610a09565b8114610a2f57600080fd5b50565b600081359050610a4181610a1b565b92915050565b600060208284031215610a5d57610a5c6107ef565b5b6000610a6b84828501610a32565b91505092915050565b604082016000820151610a8a60008501826108fc565b506020820151610a9d602085018261090b565b50505050565b6000604082019050610ab86000830184610a74565b92915050565b610ac781610877565b8114610ad257600080fd5b50565b600081359050610ae481610abe565b92915050565b600060208284031215610b0057610aff6107ef565b5b6000610b0e84828501610ad5565b91505092915050565b600082825260208201905092915050565b7f4f776e61626c653a2063616c6c6572206973206e6f7420746865206f776e6572600082015250565b6000610b5e602083610b17565b9150610b6982610b28565b602082019050919050565b60006020820190508181036000830152610b8d81610b51565b9050919050565b7f4e487b7100000000000000000000000000000000000000000000000000000000600052601160045260246000fd5b6000610bce826107f4565b9150610bd9836107f4565b925082821015610bec57610beb610b94565b5b828203905092915050565b7f4e487b7100000000000000000000000000000000000000000000000000000000600052603260045260246000fd5b7f4f776e61626c653a206e6577206f776e657220697320746865207a65726f206160008201527f6464726573730000000000000000000000000000000000000000000000000000602082015250565b6000610c82602683610b17565b9150610c8d82610c26565b604082019050919050565b60006020820190508181036000830152610cb181610c75565b9050919050565b600081905092915050565b50565b6000610cd3600083610cb8565b9150610cde82610cc3565b600082019050919050565b6000610cf482610cc6565b9150819050919050565b7f6661696c656420746f2073656e64204574686572000000000000000000000000600082015250565b6000610d34601483610b17565b9150610d3f82610cfe565b602082019050919050565b60006020820190508181036000830152610d6381610d27565b905091905056fea2646970667358221220906a30cfa09700d93a47a275630011bfdd330084f96298238ccf209c5a4ec60a64736f6c634300080b0033",
  "immutableReferences": {},
  "source": "// SPDX-License-Identifier: MIT\n\npragma solidity ^0.8.0;\n\nimport \"@openzeppelin/contracts/access/Ownable.sol\";\nimport \"./CompletionContract.sol\";\nimport \"./ReceiverStruct.sol\";\n\n/** @title Staker */\ncontract Staker is Ownable {\n    enum StakingStatus {\n        OPEN,\n        CLOSED,\n        COMPLETED,\n        AWARDED\n    }\n\n    StakingStatus public status;\n\n    event Staked(address indexed _from, uint256 _value);\n    event Withdraw(address indexed _from, uint256 _value);\n    event StakingCompleted(uint256 _amountStaked);\n    event Awarded(address _to, uint256 _value);\n\n    // to keep track of the amount each user staked\n    mapping(address => uint256) public stakedBalances;\n\n    // array of users who have staked\n    address[] public stakers;\n\n    // quickly lookup if a user has staked before\n    mapping(address => bool) private _userHasStaked;\n\n    // minimum required amount for staking to be complete\n    uint256 private constant _threshold = 1 ether;\n\n    // the contract to send ethereum to when threshold has been reached\n    CompletionContract public completionContract;\n\n    address payable private _completionContractAddress;\n\n    constructor() {\n        completionContract = new CompletionContract();\n        _completionContractAddress = payable(address(completionContract));\n        status = StakingStatus.OPEN;\n    }\n\n    modifier onlyWhenOpen() {\n        require(status == StakingStatus.OPEN, \"staking is currently not open\");\n        _;\n    }\n\n    modifier onlyWhenCompleted() {\n        require(\n            status == StakingStatus.COMPLETED,\n            \"staking is currently not complete\"\n        );\n        _;\n    }\n\n    receive() external payable {\n        _stake();\n    }\n\n    fallback() external payable {\n        _stake();\n    }\n\n    function stake() public payable {\n        _stake();\n    }\n\n    function _stake() private onlyWhenOpen {\n        if (_userHasStaked[msg.sender] == false) {\n            stakers.push(msg.sender);\n            _userHasStaked[msg.sender] = true;\n        }\n\n        stakedBalances[msg.sender] += msg.value;\n\n        emit Staked(msg.sender, msg.value);\n    }\n\n    function getTotalStakedAmount() public view returns (uint256) {\n        uint256 totalAmount = 0;\n        for (uint256 i = 0; i < stakers.length; i++) {\n            totalAmount += stakedBalances[stakers[i]];\n        }\n        return totalAmount;\n    }\n\n    function withdraw() public {\n        require(\n            status == StakingStatus.CLOSED,\n            \"staking is currently not closed. cannot withdraw\"\n        );\n\n        uint256 stakedAmount = stakedBalances[msg.sender];\n\n        require(\n            stakedAmount >= address(this).balance,\n            \"insufficient balance! cannot issue withdrawal!\"\n        );\n        require(\n            stakedAmount > 0,\n            \"cannot withdraw, you have not staked any amount\"\n        );\n\n        (bool success, ) = address(msg.sender).call{value: stakedAmount}(\"\");\n        require(success, \"unable to complete withdrawal\");\n\n        stakedBalances[msg.sender] = 0;\n\n        emit Withdraw(msg.sender, stakedAmount);\n    }\n\n    function closeStaking() public onlyOwner {\n        status = StakingStatus.CLOSED;\n    }\n\n    function completeStaking() public onlyOwner {\n        uint256 balance = address(this).balance;\n        require(\n            balance >= _threshold,\n            \"staked amount has not reached threshold\"\n        );\n        _transfer(_completionContractAddress, balance);\n\n        for (uint256 i = 0; i < stakers.length; i++) {\n            // delete stakedBalances[stakers[i]];\n            stakedBalances[stakers[i]] = 0;\n            _userHasStaked[stakers[i]] = false;\n        }\n\n        stakers = new address[](0);\n        status = StakingStatus.COMPLETED;\n\n        emit StakingCompleted(balance);\n    }\n\n    function _transfer(address payable _to, uint256 _amount) private {\n        (bool success, ) = _to.call{value: _amount}(\"\");\n        require(success, \"failed to send Ether\");\n    }\n\n    function getStatus() public view returns (uint8) {\n        return uint8(status);\n    }\n\n    function getNumberOfStakers() public view returns (uint256) {\n        return stakers.length;\n    }\n\n    function getUserStakedAmount(address _user) public view returns (uint256) {\n        return stakedBalances[_user];\n    }\n\n    function awardStakedBalance(address payable _to)\n        public\n        onlyOwner\n        onlyWhenCompleted\n    {\n        uint256 balance = address(completionContract).balance;\n        completionContract.transferStakedBalance(_to);\n        status = StakingStatus.AWARDED;\n\n        emit Awarded(_to, balance);\n    }\n\n    function restartStaking() public onlyOwner {\n        require(\n            status == StakingStatus.AWARDED || status == StakingStatus.CLOSED,\n            \"staking must have been awarded or is closed\"\n        );\n        status = StakingStatus.OPEN;\n    }\n\n    function getPastReceivers() public view returns (Receiver[] memory) {\n        return completionContract.getPastReceivers();\n    }\n\n    function getLastReciver() public view returns (Receiver memory) {\n        return completionContract.getLastReciver();\n    }\n}\n",
  "sourcePath": "/home/dan/Projects/web3/truffle/staking-dapp/contracts/Staker.sol",
  "compiler": {
    "name": "solc",
    "version": "0.8.11+commit.d7f03943.Emscripten.clang"
  },
  "schemaVersion": "3.4.4",
  "updatedAt": "2022-02-11T09:48:10.795Z",
  "networkType": "ethereum",
  "devdoc": {
    "kind": "dev",
    "methods": {
      "owner()": {
        "details": "Returns the address of the current owner."
      },
      "renounceOwnership()": {
        "details": "Leaves the contract without owner. It will not be possible to call `onlyOwner` functions anymore. Can only be called by the current owner. NOTE: Renouncing ownership will leave the contract without an owner, thereby removing any functionality that is only available to the owner."
      },
      "transferOwnership(address)": {
        "details": "Transfers ownership of the contract to a new account (`newOwner`). Can only be called by the current owner."
      }
    },
    "title": "Staker ",
    "version": 1
  },
  "userdoc": {
    "kind": "user",
    "methods": {},
    "version": 1
  }
}