{
  "contractName": "Staker",
  "abi": [
    {
      "inputs": [],
      "stateMutability": "nonpayable",
      "type": "constructor"
    },
    {
      "anonymous": false,
      "inputs": [
        {
          "indexed": false,
          "internalType": "address",
          "name": "_to",
          "type": "address"
        },
        {
          "indexed": false,
          "internalType": "uint256",
          "name": "_value",
          "type": "uint256"
        }
      ],
      "name": "Awarded",
      "type": "event"
    },
    {
      "anonymous": false,
      "inputs": [
        {
          "indexed": true,
          "internalType": "address",
          "name": "previousOwner",
          "type": "address"
        },
        {
          "indexed": true,
          "internalType": "address",
          "name": "newOwner",
          "type": "address"
        }
      ],
      "name": "OwnershipTransferred",
      "type": "event"
    },
    {
      "anonymous": false,
      "inputs": [
        {
          "indexed": true,
          "internalType": "address",
          "name": "_from",
          "type": "address"
        },
        {
          "indexed": false,
          "internalType": "uint256",
          "name": "_value",
          "type": "uint256"
        }
      ],
      "name": "Staked",
      "type": "event"
    },
    {
      "anonymous": false,
      "inputs": [
        {
          "indexed": false,
          "internalType": "uint256",
          "name": "_amountStaked",
          "type": "uint256"
        }
      ],
      "name": "StakingCompleted",
      "type": "event"
    },
    {
      "anonymous": false,
      "inputs": [
        {
          "indexed": true,
          "internalType": "address",
          "name": "_from",
          "type": "address"
        },
        {
          "indexed": false,
          "internalType": "uint256",
          "name": "_value",
          "type": "uint256"
        }
      ],
      "name": "Withdraw",
      "type": "event"
    },
    {
      "stateMutability": "payable",
      "type": "fallback"
    },
    {
      "inputs": [],
      "name": "completionContract",
      "outputs": [
        {
          "internalType": "contract CompletionContract",
          "name": "",
          "type": "address"
        }
      ],
      "stateMutability": "view",
      "type": "function"
    },
    {
      "inputs": [],
      "name": "owner",
      "outputs": [
        {
          "internalType": "address",
          "name": "",
          "type": "address"
        }
      ],
      "stateMutability": "view",
      "type": "function"
    },
    {
      "inputs": [],
      "name": "renounceOwnership",
      "outputs": [],
      "stateMutability": "nonpayable",
      "type": "function"
    },
    {
      "inputs": [
        {
          "internalType": "address",
          "name": "",
          "type": "address"
        }
      ],
      "name": "stakedBalances",
      "outputs": [
        {
          "internalType": "uint256",
          "name": "",
          "type": "uint256"
        }
      ],
      "stateMutability": "view",
      "type": "function"
    },
    {
      "inputs": [
        {
          "internalType": "uint256",
          "name": "",
          "type": "uint256"
        }
      ],
      "name": "stakers",
      "outputs": [
        {
          "internalType": "address",
          "name": "",
          "type": "address"
        }
      ],
      "stateMutability": "view",
      "type": "function"
    },
    {
      "inputs": [],
      "name": "status",
      "outputs": [
        {
          "internalType": "enum Staker.StakingStatus",
          "name": "",
          "type": "uint8"
        }
      ],
      "stateMutability": "view",
      "type": "function"
    },
    {
      "inputs": [
        {
          "internalType": "address",
          "name": "newOwner",
          "type": "address"
        }
      ],
      "name": "transferOwnership",
      "outputs": [],
      "stateMutability": "nonpayable",
      "type": "function"
    },
    {
      "stateMutability": "payable",
      "type": "receive"
    },
    {
      "inputs": [],
      "name": "stake",
      "outputs": [],
      "stateMutability": "payable",
      "type": "function"
    },
    {
      "inputs": [],
      "name": "getTotalStakedAmount",
      "outputs": [
        {
          "internalType": "uint256",
          "name": "",
          "type": "uint256"
        }
      ],
      "stateMutability": "view",
      "type": "function"
    },
    {
      "inputs": [],
      "name": "withdraw",
      "outputs": [],
      "stateMutability": "nonpayable",
      "type": "function"
    },
    {
      "inputs": [],
      "name": "closeStaking",
      "outputs": [],
      "stateMutability": "nonpayable",
      "type": "function"
    },
    {
      "inputs": [],
      "name": "completeStaking",
      "outputs": [],
      "stateMutability": "nonpayable",
      "type": "function"
    },
    {
      "inputs": [],
      "name": "getStatus",
      "outputs": [
        {
          "internalType": "uint8",
          "name": "",
          "type": "uint8"
        }
      ],
      "stateMutability": "view",
      "type": "function"
    },
    {
      "inputs": [],
      "name": "getNumberOfStakers",
      "outputs": [
        {
          "internalType": "uint256",
          "name": "",
          "type": "uint256"
        }
      ],
      "stateMutability": "view",
      "type": "function"
    },
    {
      "inputs": [
        {
          "internalType": "address",
          "name": "_user",
          "type": "address"
        }
      ],
      "name": "getUserStakedAmount",
      "outputs": [
        {
          "internalType": "uint256",
          "name": "",
          "type": "uint256"
        }
      ],
      "stateMutability": "view",
      "type": "function"
    },
    {
      "inputs": [
        {
          "internalType": "address payable",
          "name": "_to",
          "type": "address"
        }
      ],
      "name": "awardStakedBalance",
      "outputs": [],
      "stateMutability": "nonpayable",
      "type": "function"
    },
    {
      "inputs": [],
      "name": "restartStaking",
      "outputs": [],
      "stateMutability": "nonpayable",
      "type": "function"
    },
    {
      "inputs": [],
      "name": "getPastReceivers",
      "outputs": [
        {
          "components": [
            {
              "internalType": "address",
              "name": "receiverAddress",
              "type": "address"
            },
            {
              "internalType": "uint256",
              "name": "amount",
              "type": "uint256"
            }
          ],
          "internalType": "struct Receiver[]",
          "name": "",
          "type": "tuple[]"
        }
      ],
      "stateMutability": "view",
      "type": "function"
    },
    {
      "inputs": [],
      "name": "getLastReciver",
      "outputs": [
        {
          "components": [
            {
              "internalType": "address",
              "name": "receiverAddress",
              "type": "address"
            },
            {
              "internalType": "uint256",
              "name": "amount",
              "type": "uint256"
            }
          ],
          "internalType": "struct Receiver",
          "name": "",
          "type": "tuple"
        }
      ],
      "stateMutability": "view",
      "type": "function"
    }
  ],
  "bytecode": "0x60806040523480156200001157600080fd5b5062000032620000266200013460201b60201c565b6200013c60201b60201c565b604051620000409062000200565b604051809103906000f0801580156200005d573d6000803e3d6000fd5b50600360006101000a81548173ffffffffffffffffffffffffffffffffffffffff021916908373ffffffffffffffffffffffffffffffffffffffff160217905550600360009054906101000a900473ffffffffffffffffffffffffffffffffffffffff16600460006101000a81548173ffffffffffffffffffffffffffffffffffffffff021916908373ffffffffffffffffffffffffffffffffffffffff16021790555060008060146101000a81548160ff021916908360038111156200012957620001286200020e565b5b02179055506200023d565b600033905090565b60008060009054906101000a900473ffffffffffffffffffffffffffffffffffffffff169050816000806101000a81548173ffffffffffffffffffffffffffffffffffffffff021916908373ffffffffffffffffffffffffffffffffffffffff1602179055508173ffffffffffffffffffffffffffffffffffffffff168173ffffffffffffffffffffffffffffffffffffffff167f8be0079c531659141344cd1fd0a4f28419497f9722a3daafe3b4186f6b6457e060405160405180910390a35050565b610ea0806200266b83390190565b7f4e487b7100000000000000000000000000000000000000000000000000000000600052602160045260246000fd5b61241e806200024d6000396000f3fe6080604052600436106101185760003560e01c8063715018a6116100a057806398cfe5871161006457806398cfe58714610350578063d35c073414610367578063f2fde38b14610392578063fd5e6dd1146103bb578063fe1d3795146103f857610127565b8063715018a61461029157806379e8bd21146102a8578063824761d5146102bf5780638da5cb5b146102e857806394465b211461031357610127565b80633b86425d116100e75780633b86425d146101ce5780633ccfd60b146101f95780634e69d56014610210578063612babdb1461023b578063658b67291461026657610127565b80631460fa8714610131578063200d2ed21461016e57806338adb6f0146101995780633a4b66f1146101c457610127565b366101275761012561040f565b005b61012f61040f565b005b34801561013d57600080fd5b5061015860048036038101906101539190611618565b61058e565b604051610165919061165e565b60405180910390f35b34801561017a57600080fd5b506101836105a6565b60405161019091906116f0565b60405180910390f35b3480156101a557600080fd5b506101ae6105b9565b6040516101bb919061165e565b60405180910390f35b6101cc610676565b005b3480156101da57600080fd5b506101e3610680565b6040516101f09190611807565b60405180910390f35b34801561020557600080fd5b5061020e61071d565b005b34801561021c57600080fd5b5061022561099e565b6040516102329190611845565b60405180910390f35b34801561024757600080fd5b506102506109c6565b60405161025d91906118bf565b60405180910390f35b34801561027257600080fd5b5061027b6109ec565b604051610288919061165e565b60405180910390f35b34801561029d57600080fd5b506102a66109f9565b005b3480156102b457600080fd5b506102bd610a81565b005b3480156102cb57600080fd5b506102e660048036038101906102e19190611918565b610bdc565b005b3480156102f457600080fd5b506102fd610e01565b60405161030a9190611954565b60405180910390f35b34801561031f57600080fd5b5061033a60048036038101906103359190611618565b610e2a565b604051610347919061165e565b60405180910390f35b34801561035c57600080fd5b50610365610e73565b005b34801561037357600080fd5b5061037c610f1c565b604051610389919061199e565b60405180910390f35b34801561039e57600080fd5b506103b960048036038101906103b49190611618565b610fb9565b005b3480156103c757600080fd5b506103e260048036038101906103dd91906119e5565b6110b1565b6040516103ef9190611954565b60405180910390f35b34801561040457600080fd5b5061040d6110f0565b005b6000600381111561042357610422611679565b5b600060149054906101000a900460ff16600381111561044557610444611679565b5b14610485576040517f08c379a000000000000000000000000000000000000000000000000000000000815260040161047c90611a6f565b60405180910390fd5b6002339080600181540180825580915050600190039060005260206000200160009091909190916101000a81548173ffffffffffffffffffffffffffffffffffffffff021916908373ffffffffffffffffffffffffffffffffffffffff16021790555034600160003373ffffffffffffffffffffffffffffffffffffffff1673ffffffffffffffffffffffffffffffffffffffff16815260200190815260200160002060008282546105379190611abe565b925050819055503373ffffffffffffffffffffffffffffffffffffffff167f9e71bc8eea02a63969f509818f2dafb9254532904319f9dbda79b67bd34a5f3d34604051610584919061165e565b60405180910390a2565b60016020528060005260406000206000915090505481565b600060149054906101000a900460ff1681565b6000806000905060005b60028054905081101561066e5760016000600283815481106105e8576105e7611b14565b5b9060005260206000200160009054906101000a900473ffffffffffffffffffffffffffffffffffffffff1673ffffffffffffffffffffffffffffffffffffffff1673ffffffffffffffffffffffffffffffffffffffff16815260200190815260200160002054826106599190611abe565b9150808061066690611b43565b9150506105c3565b508091505090565b61067e61040f565b565b6060600360009054906101000a900473ffffffffffffffffffffffffffffffffffffffff1673ffffffffffffffffffffffffffffffffffffffff16633b86425d6040518163ffffffff1660e01b8152600401600060405180830381865afa1580156106ef573d6000803e3d6000fd5b505050506040513d6000823e3d601f19601f820116820180604052508101906107189190611d64565b905090565b6001600381111561073157610730611679565b5b600060149054906101000a900460ff16600381111561075357610752611679565b5b14610793576040517f08c379a000000000000000000000000000000000000000000000000000000000815260040161078a90611e1f565b60405180910390fd5b6000600160003373ffffffffffffffffffffffffffffffffffffffff1673ffffffffffffffffffffffffffffffffffffffff1681526020019081526020016000205490504781101561081a576040517f08c379a000000000000000000000000000000000000000000000000000000000815260040161081190611eb1565b60405180910390fd5b6000811161085d576040517f08c379a000000000000000000000000000000000000000000000000000000000815260040161085490611f43565b60405180910390fd5b60003373ffffffffffffffffffffffffffffffffffffffff168260405161088390611f94565b60006040518083038185875af1925050503d80600081146108c0576040519150601f19603f3d011682016040523d82523d6000602084013e6108c5565b606091505b5050905080610909576040517f08c379a000000000000000000000000000000000000000000000000000000000815260040161090090611ff5565b60405180910390fd5b600160003373ffffffffffffffffffffffffffffffffffffffff1673ffffffffffffffffffffffffffffffffffffffff168152602001908152602001600020600090553373ffffffffffffffffffffffffffffffffffffffff167f884edad9ce6fa2440d8a54cc123490eb96d2768479d49ff9c7366125a942436483604051610992919061165e565b60405180910390a25050565b60008060149054906101000a900460ff1660038111156109c1576109c0611679565b5b905090565b600360009054906101000a900473ffffffffffffffffffffffffffffffffffffffff1681565b6000600280549050905090565b610a01611352565b73ffffffffffffffffffffffffffffffffffffffff16610a1f610e01565b73ffffffffffffffffffffffffffffffffffffffff1614610a75576040517f08c379a0000000000000000000000000000000000000000000000000000000008152600401610a6c90612061565b60405180910390fd5b610a7f600061135a565b565b610a89611352565b73ffffffffffffffffffffffffffffffffffffffff16610aa7610e01565b73ffffffffffffffffffffffffffffffffffffffff1614610afd576040517f08c379a0000000000000000000000000000000000000000000000000000000008152600401610af490612061565b60405180910390fd5b600380811115610b1057610b0f611679565b5b600060149054906101000a900460ff166003811115610b3257610b31611679565b5b1480610b71575060016003811115610b4d57610b4c611679565b5b600060149054906101000a900460ff166003811115610b6f57610b6e611679565b5b145b610bb0576040517f08c379a0000000000000000000000000000000000000000000000000000000008152600401610ba7906120f3565b60405180910390fd5b60008060146101000a81548160ff02191690836003811115610bd557610bd4611679565b5b0217905550565b610be4611352565b73ffffffffffffffffffffffffffffffffffffffff16610c02610e01565b73ffffffffffffffffffffffffffffffffffffffff1614610c58576040517f08c379a0000000000000000000000000000000000000000000000000000000008152600401610c4f90612061565b60405180910390fd5b60026003811115610c6c57610c6b611679565b5b600060149054906101000a900460ff166003811115610c8e57610c8d611679565b5b14610cce576040517f08c379a0000000000000000000000000000000000000000000000000000000008152600401610cc590612185565b60405180910390fd5b6000600360009054906101000a900473ffffffffffffffffffffffffffffffffffffffff1673ffffffffffffffffffffffffffffffffffffffff16319050600360009054906101000a900473ffffffffffffffffffffffffffffffffffffffff1673ffffffffffffffffffffffffffffffffffffffff1663a8cd55d1836040518263ffffffff1660e01b8152600401610d6791906121b4565b600060405180830381600087803b158015610d8157600080fd5b505af1158015610d95573d6000803e3d6000fd5b505050506003600060146101000a81548160ff02191690836003811115610dbf57610dbe611679565b5b02179055507fcd8ae3717c1e5ff5eae19e78399c4db942424faf048bca1b2774ac2a7c3d70a58282604051610df5929190612202565b60405180910390a15050565b60008060009054906101000a900473ffffffffffffffffffffffffffffffffffffffff16905090565b6000600160008373ffffffffffffffffffffffffffffffffffffffff1673ffffffffffffffffffffffffffffffffffffffff168152602001908152602001600020549050919050565b610e7b611352565b73ffffffffffffffffffffffffffffffffffffffff16610e99610e01565b73ffffffffffffffffffffffffffffffffffffffff1614610eef576040517f08c379a0000000000000000000000000000000000000000000000000000000008152600401610ee690612061565b60405180910390fd5b6001600060146101000a81548160ff02191690836003811115610f1557610f14611679565b5b0217905550565b610f246114cf565b600360009054906101000a900473ffffffffffffffffffffffffffffffffffffffff1673ffffffffffffffffffffffffffffffffffffffff1663d35c07346040518163ffffffff1660e01b81526004016040805180830381865afa158015610f90573d6000803e3d6000fd5b505050506040513d601f19601f82011682018060405250810190610fb4919061222b565b905090565b610fc1611352565b73ffffffffffffffffffffffffffffffffffffffff16610fdf610e01565b73ffffffffffffffffffffffffffffffffffffffff1614611035576040517f08c379a000000000000000000000000000000000000000000000000000000000815260040161102c90612061565b60405180910390fd5b600073ffffffffffffffffffffffffffffffffffffffff168173ffffffffffffffffffffffffffffffffffffffff1614156110a5576040517f08c379a000000000000000000000000000000000000000000000000000000000815260040161109c906122ca565b60405180910390fd5b6110ae8161135a565b50565b600281815481106110c157600080fd5b906000526020600020016000915054906101000a900473ffffffffffffffffffffffffffffffffffffffff1681565b6110f8611352565b73ffffffffffffffffffffffffffffffffffffffff16611116610e01565b73ffffffffffffffffffffffffffffffffffffffff161461116c576040517f08c379a000000000000000000000000000000000000000000000000000000000815260040161116390612061565b60405180910390fd5b6000479050670de0b6b3a76400008110156111bc576040517f08c379a00000000000000000000000000000000000000000000000000000000081526004016111b39061235c565b60405180910390fd5b6111e8600460009054906101000a900473ffffffffffffffffffffffffffffffffffffffff168261141e565b60005b60028054905081101561128c5760016000600283815481106112105761120f611b14565b5b9060005260206000200160009054906101000a900473ffffffffffffffffffffffffffffffffffffffff1673ffffffffffffffffffffffffffffffffffffffff1673ffffffffffffffffffffffffffffffffffffffff16815260200190815260200160002060009055808061128490611b43565b9150506111eb565b50600067ffffffffffffffff8111156112a8576112a7611ba2565b5b6040519080825280602002602001820160405280156112d65781602001602082028036833780820191505090505b50600290805190602001906112ec9291906114ff565b506002600060146101000a81548160ff0219169083600381111561131357611312611679565b5b02179055507f20c2ec7b8a9676c715986ce2068de00d5acf2628559326492fc25462641576ae81604051611347919061165e565b60405180910390a150565b600033905090565b60008060009054906101000a900473ffffffffffffffffffffffffffffffffffffffff169050816000806101000a81548173ffffffffffffffffffffffffffffffffffffffff021916908373ffffffffffffffffffffffffffffffffffffffff1602179055508173ffffffffffffffffffffffffffffffffffffffff168173ffffffffffffffffffffffffffffffffffffffff167f8be0079c531659141344cd1fd0a4f28419497f9722a3daafe3b4186f6b6457e060405160405180910390a35050565b60008273ffffffffffffffffffffffffffffffffffffffff168260405161144490611f94565b60006040518083038185875af1925050503d8060008114611481576040519150601f19603f3d011682016040523d82523d6000602084013e611486565b606091505b50509050806114ca576040517f08c379a00000000000000000000000000000000000000000000000000000000081526004016114c1906123c8565b60405180910390fd5b505050565b6040518060400160405280600073ffffffffffffffffffffffffffffffffffffffff168152602001600081525090565b828054828255906000526020600020908101928215611578579160200282015b828111156115775782518260006101000a81548173ffffffffffffffffffffffffffffffffffffffff021916908373ffffffffffffffffffffffffffffffffffffffff1602179055509160200191906001019061151f565b5b5090506115859190611589565b5090565b5b808211156115a257600081600090555060010161158a565b5090565b6000604051905090565b600080fd5b600080fd5b600073ffffffffffffffffffffffffffffffffffffffff82169050919050565b60006115e5826115ba565b9050919050565b6115f5816115da565b811461160057600080fd5b50565b600081359050611612816115ec565b92915050565b60006020828403121561162e5761162d6115b0565b5b600061163c84828501611603565b91505092915050565b6000819050919050565b61165881611645565b82525050565b6000602082019050611673600083018461164f565b92915050565b7f4e487b7100000000000000000000000000000000000000000000000000000000600052602160045260246000fd5b600481106116b9576116b8611679565b5b50565b60008190506116ca826116a8565b919050565b60006116da826116bc565b9050919050565b6116ea816116cf565b82525050565b600060208201905061170560008301846116e1565b92915050565b600081519050919050565b600082825260208201905092915050565b6000819050602082019050919050565b611740816115da565b82525050565b61174f81611645565b82525050565b60408201600082015161176b6000850182611737565b50602082015161177e6020850182611746565b50505050565b60006117908383611755565b60408301905092915050565b6000602082019050919050565b60006117b48261170b565b6117be8185611716565b93506117c983611727565b8060005b838110156117fa5781516117e18882611784565b97506117ec8361179c565b9250506001810190506117cd565b5085935050505092915050565b6000602082019050818103600083015261182181846117a9565b905092915050565b600060ff82169050919050565b61183f81611829565b82525050565b600060208201905061185a6000830184611836565b92915050565b6000819050919050565b600061188561188061187b846115ba565b611860565b6115ba565b9050919050565b60006118978261186a565b9050919050565b60006118a98261188c565b9050919050565b6118b98161189e565b82525050565b60006020820190506118d460008301846118b0565b92915050565b60006118e5826115ba565b9050919050565b6118f5816118da565b811461190057600080fd5b50565b600081359050611912816118ec565b92915050565b60006020828403121561192e5761192d6115b0565b5b600061193c84828501611903565b91505092915050565b61194e816115da565b82525050565b60006020820190506119696000830184611945565b92915050565b6040820160008201516119856000850182611737565b5060208201516119986020850182611746565b50505050565b60006040820190506119b3600083018461196f565b92915050565b6119c281611645565b81146119cd57600080fd5b50565b6000813590506119df816119b9565b92915050565b6000602082840312156119fb576119fa6115b0565b5b6000611a09848285016119d0565b91505092915050565b600082825260208201905092915050565b7f7374616b696e672069732063757272656e746c79206e6f74206f70656e000000600082015250565b6000611a59601d83611a12565b9150611a6482611a23565b602082019050919050565b60006020820190508181036000830152611a8881611a4c565b9050919050565b7f4e487b7100000000000000000000000000000000000000000000000000000000600052601160045260246000fd5b6000611ac982611645565b9150611ad483611645565b9250827fffffffffffffffffffffffffffffffffffffffffffffffffffffffffffffffff03821115611b0957611b08611a8f565b5b828201905092915050565b7f4e487b7100000000000000000000000000000000000000000000000000000000600052603260045260246000fd5b6000611b4e82611645565b91507fffffffffffffffffffffffffffffffffffffffffffffffffffffffffffffffff821415611b8157611b80611a8f565b5b600182019050919050565b600080fd5b6000601f19601f8301169050919050565b7f4e487b7100000000000000000000000000000000000000000000000000000000600052604160045260246000fd5b611bda82611b91565b810181811067ffffffffffffffff82111715611bf957611bf8611ba2565b5b80604052505050565b6000611c0c6115a6565b9050611c188282611bd1565b919050565b600067ffffffffffffffff821115611c3857611c37611ba2565b5b602082029050602081019050919050565b600080fd5b600080fd5b600081519050611c62816115ec565b92915050565b600081519050611c77816119b9565b92915050565b600060408284031215611c9357611c92611c4e565b5b611c9d6040611c02565b90506000611cad84828501611c53565b6000830152506020611cc184828501611c68565b60208301525092915050565b6000611ce0611cdb84611c1d565b611c02565b90508083825260208201905060408402830185811115611d0357611d02611c49565b5b835b81811015611d2c5780611d188882611c7d565b845260208401935050604081019050611d05565b5050509392505050565b600082601f830112611d4b57611d4a611b8c565b5b8151611d5b848260208601611ccd565b91505092915050565b600060208284031215611d7a57611d796115b0565b5b600082015167ffffffffffffffff811115611d9857611d976115b5565b5b611da484828501611d36565b91505092915050565b7f7374616b696e672069732063757272656e746c79206e6f7420636c6f7365642e60008201527f2063616e6e6f7420776974686472617700000000000000000000000000000000602082015250565b6000611e09603083611a12565b9150611e1482611dad565b604082019050919050565b60006020820190508181036000830152611e3881611dfc565b9050919050565b7f696e73756666696369656e742062616c616e6365212063616e6e6f742069737360008201527f7565207769746864726177616c21000000000000000000000000000000000000602082015250565b6000611e9b602e83611a12565b9150611ea682611e3f565b604082019050919050565b60006020820190508181036000830152611eca81611e8e565b9050919050565b7f63616e6e6f742077697468647261772c20796f752068617665206e6f7420737460008201527f616b656420616e7920616d6f756e740000000000000000000000000000000000602082015250565b6000611f2d602f83611a12565b9150611f3882611ed1565b604082019050919050565b60006020820190508181036000830152611f5c81611f20565b9050919050565b600081905092915050565b50565b6000611f7e600083611f63565b9150611f8982611f6e565b600082019050919050565b6000611f9f82611f71565b9150819050919050565b7f756e61626c6520746f20636f6d706c657465207769746864726177616c000000600082015250565b6000611fdf601d83611a12565b9150611fea82611fa9565b602082019050919050565b6000602082019050818103600083015261200e81611fd2565b9050919050565b7f4f776e61626c653a2063616c6c6572206973206e6f7420746865206f776e6572600082015250565b600061204b602083611a12565b915061205682612015565b602082019050919050565b6000602082019050818103600083015261207a8161203e565b9050919050565b7f7374616b696e67206d7573742068617665206265656e2061776172646564206f60008201527f7220697320636c6f736564000000000000000000000000000000000000000000602082015250565b60006120dd602b83611a12565b91506120e882612081565b604082019050919050565b6000602082019050818103600083015261210c816120d0565b9050919050565b7f7374616b696e672069732063757272656e746c79206e6f7420636f6d706c657460008201527f6500000000000000000000000000000000000000000000000000000000000000602082015250565b600061216f602183611a12565b915061217a82612113565b604082019050919050565b6000602082019050818103600083015261219e81612162565b9050919050565b6121ae816118da565b82525050565b60006020820190506121c960008301846121a5565b92915050565b60006121da8261186a565b9050919050565b60006121ec826121cf565b9050919050565b6121fc816121e1565b82525050565b600060408201905061221760008301856121f3565b612224602083018461164f565b9392505050565b600060408284031215612241576122406115b0565b5b600061224f84828501611c7d565b91505092915050565b7f4f776e61626c653a206e6577206f776e657220697320746865207a65726f206160008201527f6464726573730000000000000000000000000000000000000000000000000000602082015250565b60006122b4602683611a12565b91506122bf82612258565b604082019050919050565b600060208201905081810360008301526122e3816122a7565b9050919050565b7f7374616b656420616d6f756e7420686173206e6f74207265616368656420746860008201527f726573686f6c6400000000000000000000000000000000000000000000000000602082015250565b6000612346602783611a12565b9150612351826122ea565b604082019050919050565b6000602082019050818103600083015261237581612339565b9050919050565b7f6661696c656420746f2073656e64204574686572000000000000000000000000600082015250565b60006123b2601483611a12565b91506123bd8261237c565b602082019050919050565b600060208201905081810360008301526123e1816123a5565b905091905056fea26469706673582212201a90ada4628015ed6afbe188dfac820526aaa6ba3b67bf7358cddcf7b9cd479964736f6c634300080b0033608060405261002061001561002560201b60201c565b61002d60201b60201c565b6100f1565b600033905090565b60008060009054906101000a900473ffffffffffffffffffffffffffffffffffffffff169050816000806101000a81548173ffffffffffffffffffffffffffffffffffffffff021916908373ffffffffffffffffffffffffffffffffffffffff1602179055508173ffffffffffffffffffffffffffffffffffffffff168173ffffffffffffffffffffffffffffffffffffffff167f8be0079c531659141344cd1fd0a4f28419497f9722a3daafe3b4186f6b6457e060405160405180910390a35050565b610da0806101006000396000f3fe6080604052600436106100745760003560e01c80638da5cb5b1161004e5780638da5cb5b146100fd578063a8cd55d114610128578063d35c073414610151578063f2fde38b1461017c5761007b565b80631e21afd51461007d5780633b86425d146100bb578063715018a6146100e65761007b565b3661007b57005b005b34801561008957600080fd5b506100a4600480360381019061009f919061082a565b6101a5565b6040516100b29291906108a7565b60405180910390f35b3480156100c757600080fd5b506100d06101f9565b6040516100dd91906109cc565b60405180910390f35b3480156100f257600080fd5b506100fb6102b8565b005b34801561010957600080fd5b50610112610340565b60405161011f91906109ee565b60405180910390f35b34801561013457600080fd5b5061014f600480360381019061014a9190610a47565b610369565b005b34801561015d57600080fd5b506101666104a1565b6040516101739190610aa3565b60405180910390f35b34801561018857600080fd5b506101a3600480360381019061019e9190610aea565b61054a565b005b600181815481106101b557600080fd5b90600052602060002090600202016000915090508060000160009054906101000a900473ffffffffffffffffffffffffffffffffffffffff16908060010154905082565b60606001805480602002602001604051908101604052809291908181526020016000905b828210156102af57838290600052602060002090600202016040518060400160405290816000820160009054906101000a900473ffffffffffffffffffffffffffffffffffffffff1673ffffffffffffffffffffffffffffffffffffffff1673ffffffffffffffffffffffffffffffffffffffff1681526020016001820154815250508152602001906001019061021d565b50505050905090565b6102c0610642565b73ffffffffffffffffffffffffffffffffffffffff166102de610340565b73ffffffffffffffffffffffffffffffffffffffff1614610334576040517f08c379a000000000000000000000000000000000000000000000000000000000815260040161032b90610b74565b60405180910390fd5b61033e600061064a565b565b60008060009054906101000a900473ffffffffffffffffffffffffffffffffffffffff16905090565b610371610642565b73ffffffffffffffffffffffffffffffffffffffff1661038f610340565b73ffffffffffffffffffffffffffffffffffffffff16146103e5576040517f08c379a00000000000000000000000000000000000000000000000000000000081526004016103dc90610b74565b60405180910390fd5b60004790506103f4828261070e565b600160405180604001604052808473ffffffffffffffffffffffffffffffffffffffff16815260200183815250908060018154018082558091505060019003906000526020600020906002020160009091909190915060008201518160000160006101000a81548173ffffffffffffffffffffffffffffffffffffffff021916908373ffffffffffffffffffffffffffffffffffffffff1602179055506020820151816001015550505050565b6104a96107bf565b60018080805490506104bb9190610bc3565b815481106104cc576104cb610bf7565b5b90600052602060002090600202016040518060400160405290816000820160009054906101000a900473ffffffffffffffffffffffffffffffffffffffff1673ffffffffffffffffffffffffffffffffffffffff1673ffffffffffffffffffffffffffffffffffffffff168152602001600182015481525050905090565b610552610642565b73ffffffffffffffffffffffffffffffffffffffff16610570610340565b73ffffffffffffffffffffffffffffffffffffffff16146105c6576040517f08c379a00000000000000000000000000000000000000000000000000000000081526004016105bd90610b74565b60405180910390fd5b600073ffffffffffffffffffffffffffffffffffffffff168173ffffffffffffffffffffffffffffffffffffffff161415610636576040517f08c379a000000000000000000000000000000000000000000000000000000000815260040161062d90610c98565b60405180910390fd5b61063f8161064a565b50565b600033905090565b60008060009054906101000a900473ffffffffffffffffffffffffffffffffffffffff169050816000806101000a81548173ffffffffffffffffffffffffffffffffffffffff021916908373ffffffffffffffffffffffffffffffffffffffff1602179055508173ffffffffffffffffffffffffffffffffffffffff168173ffffffffffffffffffffffffffffffffffffffff167f8be0079c531659141344cd1fd0a4f28419497f9722a3daafe3b4186f6b6457e060405160405180910390a35050565b60008273ffffffffffffffffffffffffffffffffffffffff168260405161073490610ce9565b60006040518083038185875af1925050503d8060008114610771576040519150601f19603f3d011682016040523d82523d6000602084013e610776565b606091505b50509050806107ba576040517f08c379a00000000000000000000000000000000000000000000000000000000081526004016107b190610d4a565b60405180910390fd5b505050565b6040518060400160405280600073ffffffffffffffffffffffffffffffffffffffff168152602001600081525090565b600080fd5b6000819050919050565b610807816107f4565b811461081257600080fd5b50565b600081359050610824816107fe565b92915050565b6000602082840312156108405761083f6107ef565b5b600061084e84828501610815565b91505092915050565b600073ffffffffffffffffffffffffffffffffffffffff82169050919050565b600061088282610857565b9050919050565b61089281610877565b82525050565b6108a1816107f4565b82525050565b60006040820190506108bc6000830185610889565b6108c96020830184610898565b9392505050565b600081519050919050565b600082825260208201905092915050565b6000819050602082019050919050565b61090581610877565b82525050565b610914816107f4565b82525050565b60408201600082015161093060008501826108fc565b506020820151610943602085018261090b565b50505050565b6000610955838361091a565b60408301905092915050565b6000602082019050919050565b6000610979826108d0565b61098381856108db565b935061098e836108ec565b8060005b838110156109bf5781516109a68882610949565b97506109b183610961565b925050600181019050610992565b5085935050505092915050565b600060208201905081810360008301526109e6818461096e565b905092915050565b6000602082019050610a036000830184610889565b92915050565b6000610a1482610857565b9050919050565b610a2481610a09565b8114610a2f57600080fd5b50565b600081359050610a4181610a1b565b92915050565b600060208284031215610a5d57610a5c6107ef565b5b6000610a6b84828501610a32565b91505092915050565b604082016000820151610a8a60008501826108fc565b506020820151610a9d602085018261090b565b50505050565b6000604082019050610ab86000830184610a74565b92915050565b610ac781610877565b8114610ad257600080fd5b50565b600081359050610ae481610abe565b92915050565b600060208284031215610b0057610aff6107ef565b5b6000610b0e84828501610ad5565b91505092915050565b600082825260208201905092915050565b7f4f776e61626c653a2063616c6c6572206973206e6f7420746865206f776e6572600082015250565b6000610b5e602083610b17565b9150610b6982610b28565b602082019050919050565b60006020820190508181036000830152610b8d81610b51565b9050919050565b7f4e487b7100000000000000000000000000000000000000000000000000000000600052601160045260246000fd5b6000610bce826107f4565b9150610bd9836107f4565b925082821015610bec57610beb610b94565b5b828203905092915050565b7f4e487b7100000000000000000000000000000000000000000000000000000000600052603260045260246000fd5b7f4f776e61626c653a206e6577206f776e657220697320746865207a65726f206160008201527f6464726573730000000000000000000000000000000000000000000000000000602082015250565b6000610c82602683610b17565b9150610c8d82610c26565b604082019050919050565b60006020820190508181036000830152610cb181610c75565b9050919050565b600081905092915050565b50565b6000610cd3600083610cb8565b9150610cde82610cc3565b600082019050919050565b6000610cf482610cc6565b9150819050919050565b7f6661696c656420746f2073656e64204574686572000000000000000000000000600082015250565b6000610d34601483610b17565b9150610d3f82610cfe565b602082019050919050565b60006020820190508181036000830152610d6381610d27565b905091905056fea2646970667358221220906a30cfa09700d93a47a275630011bfdd330084f96298238ccf209c5a4ec60a64736f6c634300080b0033",
  "immutableReferences": {},
  "source": "// SPDX-License-Identifier: MIT\n\npragma solidity ^0.8.0;\n\nimport \"@openzeppelin/contracts/access/Ownable.sol\";\nimport \"./CompletionContract.sol\";\nimport \"./ReceiverStruct.sol\";\n\n/** @title Staker */\ncontract Staker is Ownable {\n    enum StakingStatus {\n        OPEN,\n        CLOSED,\n        COMPLETED,\n        AWARDED\n    }\n\n    StakingStatus public status;\n\n    event Staked(address indexed _from, uint256 _value);\n    event Withdraw(address indexed _from, uint256 _value);\n    event StakingCompleted(uint256 _amountStaked);\n    event Awarded(address _to, uint256 _value);\n\n    // to keep track of the amount each user staked\n    mapping(address => uint256) public stakedBalances;\n\n    // array of users who have staked\n    address[] public stakers;\n\n    // minimum required amount for staking to be complete\n    uint256 private constant _threshold = 1 ether;\n\n    // the contract to send ethereum to when threshold has been reached\n    CompletionContract public completionContract;\n\n    address payable private _completionContractAddress;\n\n    constructor() {\n        completionContract = new CompletionContract();\n        _completionContractAddress = payable(address(completionContract));\n        status = StakingStatus.OPEN;\n    }\n\n    modifier onlyWhenOpen() {\n        require(status == StakingStatus.OPEN, \"staking is currently not open\");\n        _;\n    }\n\n    modifier onlyWhenCompleted() {\n        require(\n            status == StakingStatus.COMPLETED,\n            \"staking is currently not complete\"\n        );\n        _;\n    }\n\n    receive() external payable {\n        _stake();\n    }\n\n    fallback() external payable {\n        _stake();\n    }\n\n    function stake() public payable {\n        _stake();\n    }\n\n    function _stake() private onlyWhenOpen {\n        stakers.push(msg.sender);\n        stakedBalances[msg.sender] += msg.value;\n\n        emit Staked(msg.sender, msg.value);\n    }\n\n    function getTotalStakedAmount() public view returns (uint256) {\n        uint256 totalAmount = 0;\n        for (uint256 i = 0; i < stakers.length; i++) {\n            totalAmount += stakedBalances[stakers[i]];\n        }\n        return totalAmount;\n    }\n\n    function withdraw() public {\n        require(\n            status == StakingStatus.CLOSED,\n            \"staking is currently not closed. cannot withdraw\"\n        );\n\n        uint256 stakedAmount = stakedBalances[msg.sender];\n\n        require(\n            stakedAmount >= address(this).balance,\n            \"insufficient balance! cannot issue withdrawal!\"\n        );\n        require(\n            stakedAmount > 0,\n            \"cannot withdraw, you have not staked any amount\"\n        );\n\n        (bool success, ) = address(msg.sender).call{value: stakedAmount}(\"\");\n        require(success, \"unable to complete withdrawal\");\n\n        delete stakedBalances[msg.sender];\n\n        emit Withdraw(msg.sender, stakedAmount);\n    }\n\n    function closeStaking() public onlyOwner {\n        status = StakingStatus.CLOSED;\n    }\n\n    function completeStaking() public onlyOwner {\n        uint256 balance = address(this).balance;\n        require(\n            balance >= _threshold,\n            \"staked amount has not reached threshold\"\n        );\n        _transfer(_completionContractAddress, balance);\n\n        for (uint256 i = 0; i < stakers.length; i++) {\n            delete stakedBalances[stakers[i]];\n        }\n\n        stakers = new address[](0);\n        status = StakingStatus.COMPLETED;\n\n        emit StakingCompleted(balance);\n    }\n\n    function _transfer(address payable _to, uint256 _amount) private {\n        (bool success, ) = _to.call{value: _amount}(\"\");\n        require(success, \"failed to send Ether\");\n    }\n\n    function getStatus() public view returns (uint8) {\n        return uint8(status);\n    }\n\n    function getNumberOfStakers() public view returns (uint256) {\n        return stakers.length;\n    }\n\n    function getUserStakedAmount(address _user) public view returns (uint256) {\n        return stakedBalances[_user];\n    }\n\n    function awardStakedBalance(address payable _to)\n        public\n        onlyOwner\n        onlyWhenCompleted\n    {\n        uint256 balance = address(completionContract).balance;\n        completionContract.transferStakedBalance(_to);\n        status = StakingStatus.AWARDED;\n\n        emit Awarded(_to, balance);\n    }\n\n    function restartStaking() public onlyOwner {\n        require(\n            status == StakingStatus.AWARDED || status == StakingStatus.CLOSED,\n            \"staking must have been awarded or is closed\"\n        );\n        status = StakingStatus.OPEN;\n    }\n\n    function getPastReceivers() public view returns (Receiver[] memory) {\n        return completionContract.getPastReceivers();\n    }\n\n    function getLastReciver() public view returns (Receiver memory) {\n        return completionContract.getLastReciver();\n    }\n}\n",
  "sourcePath": "/home/dan/Projects/web3/truffle/staking-dapp/contracts/Staker.sol",
  "compiler": {
    "name": "solc",
    "version": "0.8.11+commit.d7f03943.Emscripten.clang"
  },
  "schemaVersion": "3.4.4",
  "updatedAt": "2022-02-02T10:50:26.844Z",
  "devdoc": {
    "kind": "dev",
    "methods": {
      "owner()": {
        "details": "Returns the address of the current owner."
      },
      "renounceOwnership()": {
        "details": "Leaves the contract without owner. It will not be possible to call `onlyOwner` functions anymore. Can only be called by the current owner. NOTE: Renouncing ownership will leave the contract without an owner, thereby removing any functionality that is only available to the owner."
      },
      "transferOwnership(address)": {
        "details": "Transfers ownership of the contract to a new account (`newOwner`). Can only be called by the current owner."
      }
    },
    "title": "Staker ",
    "version": 1
  },
  "userdoc": {
    "kind": "user",
    "methods": {},
    "version": 1
  }
}